:100000000C9462000C948A000C948A000C948A0070
:100010000C948A000C948A000C948A000C948A0038
:100020000C948A000C948A000C948A000C948A0028
:100030000C948A000C948A000C948A000C948A0018
:100040000C94D4030C948A000C9449030C9423035D
:100050000C948A000C948A000C948A000C948A00F8
:100060000C941E040C948A00000000002400270059
:100070002A0000000000250028002B0000000000DE
:1000800023002600290004040404040404040202DA
:100090000202020203030303030301020408102007
:1000A0004080010204081020010204081020000012
:1000B0000008000201000003040700000000000027
:1000C0000000500C11241FBECFEFD8E0DEBFCDBF23
:1000D00011E0A0E0B1E0E8E3FEE102C005900D927E
:1000E000A63DB107D9F723E0A6EDB1E001C01D920E
:1000F000A838B207E1F710E0C2E6D0E004C02197CB
:10010000FE010E940F0FC136D107C9F70E949B075D
:100110000C941A0F0C940000CF92DF92EF92FF9292
:100120000F931F93CF93DF936C017A018B01C0E093
:10013000D0E0CE15DF0589F0D8016D918D01D60193
:10014000ED91FC910190F081E02DC6010995892B7C
:1001500011F47E0102C02196ECCFC701DF91CF914F
:100160001F910F91FF90EF90DF90CF900895FC01C9
:10017000538D448D252F30E0842F90E0821B930B0C
:10018000541710F0CF96089501970895FC01918DB2
:10019000828D981761F0828DDF01A80FB11D5D96E9
:1001A0008C91928D9F5F9F73928F90E008958FEF57
:1001B0009FEF0895FC01918D828D981731F0828D0B
:1001C000E80FF11D858D90E008958FEF9FEF089562
:1001D000FC01918D228D892F90E0805C9F4F821BC6
:1001E00091098F739927089583E992E00E94E800AE
:1001F00021E0892B09F420E0822F0895FC01848DF1
:10020000DF01A80FB11DA35ABF4F2C91848D90E040
:1002100001968F739927848FA689B7892C93A0891B
:10022000B1898C9180648C93938D848D981306C0D2
:100230000288F389E02D80818F7D80830895EF927D
:10024000FF920F931F93CF93DF93EC0181E0888F90
:100250009B8D8C8D981305C0E889F989808185FD77
:1002600024C0F62E0B8D10E00F5F1F4F0F73112768
:10027000E02E8C8DE8120CC00FB607FCFACFE8898F
:10028000F989808185FFF5CFCE010E94FE00F1CF74
:100290008B8DFE01E80FF11DE35AFF4FF0820B8FAB
:1002A000EA89FB898081806207C0EE89FF896083CB
:1002B000E889F98980818064808381E090E0DF9122
:1002C000CF911F910F91FF90EF900895CF93DF93FF
:1002D000EC01888D8823C9F0EA89FB89808185FD3E
:1002E00005C0A889B9898C9186FD0FC00FB607FC9F
:1002F000F5CF808185FFF2CFA889B9898C9185FFE0
:10030000EDCFCE010E94FE00E7CFDF91CF9108959F
:1003100080E090E0892B29F00E94F40081110C9478
:1003200000000895CF93DF9390E0FC01E656FF4F65
:100330002491FC01EA57FF4F8491882361F190E0FA
:10034000880F991FFC01E859FF4FC591D491FC011A
:10035000EE58FF4FA591B491611109C09FB7F89471
:100360008881209582238883EC912E230BC06230F4
:1003700061F49FB7F8943881822F80958323888316
:10038000EC912E2B2C939FBF06C08FB7F894E88179
:100390002E2B28838FBFDF91CF9108953FB7F8941C
:1003A0008091220290912302A0912402B091250213
:1003B00026B5A89B05C02F3F19F00196A11DB11DC0
:1003C0003FBFBA2FA92F982F8827820F911DA11DFB
:1003D000B11DBC01CD0142E0660F771F881F991F38
:1003E0004A95D1F708958F929F92AF92BF92CF9284
:1003F000DF92EF92FF926B017C010E94CE014B01D4
:100400005C01C114D104E104F104F1F00E94CE01B9
:10041000DC01CB0188199909AA09BB09883E9340E0
:10042000A105B10570F321E0C21AD108E108F10875
:1004300088EE880E83E0981EA11CB11CC114D10463
:10044000E104F10419F7DDCFFF90EF90DF90CF903A
:10045000BF90AF909F908F90089585ED8093BC00E2
:100460008091BC0084FDFCCF10926F0208954091F2
:10047000F801262F30E0240F311D21323105DCF444
:1004800020916F022430C9F4FC0180E090E08617CF
:1004900058F43091F8012191DC01AA52BE4FA30F0C
:1004A000B11D2C930196F3CF8091F801680F6093F2
:1004B000F80180E0089581E0089582E008950895AC
:1004C000E091280280912702E81730F4F0E0E75D20
:1004D000FD4F808190E008958FEF9FEF08959091F8
:1004E000280280912702981750F4E92FF0E0E75D89
:1004F000FD4F208130E09F5F9093280202C02FEFD4
:100500003FEFC90108958091270290E020912802D1
:10051000821B91090895CF92DF92EF92FF920F9381
:100520001F93CF93DF937C01262F972F8A01809111
:100530007002882391F0C62FD72F6E01C40ED51EEE
:10054000CC15DD0571F06991D701ED91FC91019019
:10055000F081E02DC7010995F3CF642F822F0E940F
:100560003702C801DF91CF911F910F91FF90EF905B
:10057000DF90CF900895CF93DF931F92CDB7DEB772
:100580006983209170022223D1F0209192022032BF
:1005900040F021E030E0FC013383228380E090E0F2
:1005A00015C080917102E82FF0E0EE58FD4F99815F
:1005B00090838F5F809371028093920205C061E007
:1005C000CE0101960E94370281E090E00F90DF910A
:1005D000CF910895089580E090E00895EF92FF9202
:1005E0001F93CF93DF9362E08DE00E94920183E03E
:1005F00090E00197F1F7C7E0D0E010E083ECE82E3F
:10060000F12C0E947D06892BE1F3C7010197F1F7D8
:100610000E947D068130910539F49C010C2E01C0A9
:10062000220F0A94EAF7122B0E947D060197E1F34C
:10063000219738F7812FDF91CF911F91FF90EF9095
:1006400008950E94150F1F920F920FB60F9211245A
:100650002F933F934F935F936F937F938F939F93CA
:10066000AF93BF93EF93FF9383E992E00E94FE0064
:10067000FF91EF91BF91AF919F918F917F916F917A
:100680005F914F913F912F910F900FBE0F901F9050
:1006900018951F920F920FB60F9211242F938F93DC
:1006A0009F93EF93FF93E091A302F091A4028081C6
:1006B000E091A902F091AA0282FD12C0908180917E
:1006C000AC028F5F8F732091AD02821751F0E091E1
:1006D000AC02F0E0ED56FD4F958F8093AC0201C067
:1006E0008081FF91EF919F918F912F910F900FBE7D
:1006F0000F901F901895833081F028F4813099F085
:100700008230A1F008958730A9F08830B9F08430A4
:10071000D1F4809180008F7D03C0809180008F771D
:1007200080938000089584B58F7702C084B58F7D53
:1007300084BD08958091B0008F7703C08091B00090
:100740008F7D8093B00008951F93CF93DF93282F60
:1007500030E0F901E255FF4F8491F901E656FF4F71
:10076000D491F901EA57FF4FC491CC23C9F0162F59
:1007700081110E947B03EC2FF0E0EE0FFF1FEE587B
:10078000FF4FA591B4918FB7F894111105C09C91BA
:10079000ED2FE095E92302C0EC91ED2BEC938FBF98
:1007A000DF91CF911F9108951F920F920FB60F9274
:1007B00011242F933F938F939F93AF93BF93809177
:1007C0001E0290911F02A0912002B091210230914F
:1007D0001D0223E0230F2D3720F40196A11DB11D2A
:1007E00005C026E8230F0296A11DB11D20931D020E
:1007F00080931E0290931F02A0932002B0932102C7
:100800008091220290912302A0912402B0912502AE
:100810000196A11DB11D8093220290932302A09303
:100820002402B0932502BF91AF919F918F913F9188
:100830002F910F900FBE0F901F9018951F920F923F
:100840000FB60F9211242F933F934F935F936F93A3
:100850007F938F939F93AF93BF93EF93FF93809179
:10086000B900887F803609F49CC068F5883209F4A5
:100870005BC090F4803109F454C038F4882309F443
:10088000F6C0883009F44DC0F6C0883109F44CC078
:10089000803209F45DC0EFC0803409F468C048F4C8
:1008A000803309F455C0883309F0E5C080936D02A8
:1008B000D8C0803509F44FC0883509F45DC088344C
:1008C00009F0D9C0D6C0883909F4C7C0A8F4883760
:1008D00009F467C038F4883609F463C0803709F436
:1008E00060C0C9C0883809F4B8C0803909F45FC055
:1008F000803809F0C0C05BC0803B09F486C038F482
:10090000803A09F466C0883A09F47FC0B4C0803CDC
:1009100009F4A7C0883C09F4A4C0883B09F48AC044
:10092000AAC080914A0210C090916C0280916B0223
:10093000981770F5E0916C0281E08E0F80936C0245
:10094000F0E0E55BFD4F80818093BB0085EC86C0C5
:1009500080936D028EC0E0916C0281E08E0F8093D7
:100960006C028091BB00F0E0E55BFD4F80839091CD
:100970006C0280916B026EC0E0916C0281E08E0F80
:1009800080936C028091BB00F0E0E55BFD4F8083BB
:1009900080916E0281116DC081E08093490284EAEA
:1009A00061C083E080936F0210921C02CFCF8091D0
:1009B0001C02803208F051C0E0911C0281E08E0FD1
:1009C00080931C028091BB00F0E0E450FE4F8083D6
:1009D000BDCF85EC8093BC0010926F0280911C0209
:1009E000803230F4E0911C02F0E0E450FE4F1082BF
:1009F00060911C0270E0E091FA01F091FB018CEF34
:100A000091E0099510921C0236C084E080936F0239
:100A10001092F9011092F801E091F601F091F701BE
:100A200009958091F801811105C081E08093F8015A
:100A30001092D601E091F90181E08E0F8093F901C7
:100A4000F0E0EA52FE4F80818093BB009091F90163
:100A50008091F801981708F479CF85E88093BC005D
:100A60000AC085EC8093BC0010926F0204C0109203
:100A70006D020E942D02FF91EF91BF91AF919F9166
:100A80008F917F916F915F914F913F912F910F9037
:100A90000FBE0F901F901895382F209192029091C1
:100AA0008703213208F049C080916F028111FCCF89
:100AB00042E040936F0230936E023FEF30936D023D
:100AC00010926C0220936B02A2E7B2E04BE452E07A
:100AD000FA013E2F341B321718F43D913193F9CFB0
:100AE00010924A0220914A02990F922B90934A0247
:100AF00090914902913061F41092490290914A021A
:100B00009093BB009091BC0093FDF8CF95EC01C091
:100B100095EE9093BC0090916F029230E1F390912A
:100B20006D029F3F79F080916D02803241F080919B
:100B30006D02803331F084E005C081E003C082E0C3
:100B400001C083E010927102109292021092700222
:100B50000895EF92FF920F931F93CF93DF938C0131
:100B6000C62F81E08093700287E7809387031092FD
:100B7000710210929202F801608180E393E00E947A
:100B8000BB0281E00E944C0580938603811163C003
:100B90004C2F0C2E000C550B80916F028111FCCF55
:100BA0002C2FC13208F020E281E080936F02809305
:100BB0006E029FEF90936D0210926C02920F9093D1
:100BC0006B0280934A0290914A029E6E90934A0271
:100BD00080914902813061F41092490280914A0269
:100BE0008093BB008091BC0083FDF8CF85EC01C0F1
:100BF00085EE8093BC0080916F028130E1F380919B
:100C00006C02821710F420916C02ABE4B2E069E24E
:100C100072E0FB018E2F861B821718F48D91819351
:100C2000F9CF109228022093270230E024173507CD
:100C3000E9F7D0E0DC176CF47801ED0EF11CD7FD7C
:100C4000FA9480E393E00E946F02F7018083DF5FF4
:100C5000F1CF81E001C080E0DF91CF911F910F9132
:100C6000FF90EF9008950F931F93CF93DF9300D0E1
:100C7000CDB7DEB78B01898362E0CE0101960E9479
:100C8000A905882359F0898190E0982F88272A8127
:100C9000822BF8019183808381E003C0F8011182E7
:100CA00010820F900F90DF91CF911F910F910895B7
:100CB0000F931F93CF93DF9300D0CDB7DEB78B0197
:100CC000898362E0CE0101960E94A905882359F02C
:100CD000898190E0982F88272A81822BF8019183BF
:100CE000808381E003C0F801118210820F900F9081
:100CF000DF91CF911F910F910895CF93DF93EBEB8D
:100D0000F0E08491E7EAF0E0D491E3E9F0E0C49107
:100D1000CC2391F081110E947B03EC2FF0E0EE0FC9
:100D2000FF1FE458FF4FA591B491EC91ED2381E0B2
:100D300090E021F480E002C080E090E0DF91CF916C
:100D40000895009769F0FC0101900020E9F73197C0
:100D5000AF01481B590BBC0183E992E00C948C0055
:100D600080E090E008958F929F92AF92BF920F9390
:100D70001F93CF93DF93CDB7DEB7A1970FB6F8944B
:100D8000DEBF0FBECDBF19A2423008F44AE08E018B
:100D90000F5D1F4F842E912CA12CB12CA501940125
:100DA0000E94D90EE62FB901CA0101501109EA309B
:100DB00014F4E05D01C0E95CD801EC93232B242BF3
:100DC000252B61F7C8010E94A106A1960FB6F894E1
:100DD000DEBF0FBECDBFDF91CF911F910F91BF90AE
:100DE000AF909F908F900895E0919302F0919402BC
:100DF0000190F081E02D682F83E992E00994CF9271
:100E0000DF92EF92FF92CF93DF936C01990FEE0880
:100E1000FF08F7FE17C08DE20E94F406EC0166277A
:100E20007727CB016C197D098E099F094AE00E9442
:100E3000B3068C0F9D1FDF91CF91FF90EF90DF9055
:100E4000CF9008954AE0C701B601DF91CF91FF909E
:100E5000EF90DF90CF900C94B306CF93DF930E9476
:100E6000A106EC0182ED91E00E94A1068C0F9D1F6E
:100E7000DF91CF91089521E02093700227E720931E
:100E80008703109271021092920242E050E0BC017E
:100E900080E393E00E948B0281E00E944C05982F32
:100EA0008093860381E0911180E00895CF92DF92D4
:100EB000EF92FF920F931F93E82FF92F05C0015077
:100EC00011092109310961F1908196239417B9F331
:100ED00005C0015011092109310911F190819623B2
:100EE0009413F7CFC12CD12CE12CF12C0AC08FEF39
:100EF000C81AD80AE80AF80A0C151D052E053F0580
:100F000079F080818623841791F36C2D7D2D8E2DB1
:100F10009F2D1F910F91FF90EF90DF90CF9008953C
:100F200060E070E080E090E01F910F91FF90EF9003
:100F3000DF90CF900895CF93DF93CDB7DEB727979B
:100F40000FB6F894DEBF0FBECDBF789484B5826033
:100F500084BD84B5816084BD85B5826085BD85B55D
:100F6000816085BD80916E00816080936E001092DB
:100F70008100809181008260809381008091810056
:100F800081608093810080918000816080938000E7
:100F90008091B10084608093B1008091B000816045
:100FA0008093B00080917A00846080937A00809171
:100FB0007A00826080937A0080917A0081608093C9
:100FC0007A0080917A00806880937A001092C10044
:100FD000E091A302F091A40282E08083E0919F025D
:100FE000F091A0021082E091A102F091A2028FEC98
:100FF00080831092AB02E091A702F091A80286E0F4
:101000008083E091A502F091A602808180618083B7
:10101000E091A502F091A602808188608083E09132
:10102000A502F091A602808180688083E091A502EC
:10103000F091A60280818F7D808310922802109209
:101040002702109271021092920210926F0281E0B8
:1010500080936E021092490261E082E10E94A40333
:1010600061E083E10E94A4038091B9008E7F8093A8
:10107000B9008091B9008D7F8093B90088E4809396
:10108000B80085E48093BC006CE373E08AEA0E94B8
:101090003306882309F447C06EE373E08CEA0E94AC
:1010A0003306882309F43FC060E473E08EEA0E94AF
:1010B00033068823C1F16CE473E080EB0E9458068C
:1010C000882389F16EE473E082EB0E94580688233E
:1010D00051F160E573E084EB0E945806882319F112
:1010E00062E473E086EB0E9433068823E1F064E457
:1010F00073E088EB0E9433068823A9F066E473E06E
:101100008AEB0E943306882371F068E473E08CEB6D
:101110000E943306882339F06AE473E08EEB0E9464
:1011200033068111A0C260E083E00E94920161E079
:1011300082E00E9492014BE3242E3324339483E90E
:1011400092E00E94E800181619060CF083C283E9A9
:1011500092E00E94C60080932602813609F07AC28E
:1011600061E08DE00E94920160E08DE00E94A403A6
:101170006EE170E080E090E00E94F30161E08DE0BC
:101180000E94A4038BE990E00197F1F762E08DE003
:101190000E9492010E947D06019721F4C1010197EE
:1011A000F1F7F8CF0E947D06892B19F4C101019750
:1011B000F1F70E94EE02F82E0E94EE020E94EE026B
:1011C000182F0E94EE020E94EE0283EC90E001973D
:1011D000F1F761E08DE00E94920161E08DE00E94F4
:1011E000A4038F2D90E0880F991F0E94FF0684E2D0
:1011F00091E00E94A106812F90E0880F991F0E9424
:10120000FF0684E291E00E94A10624EF29838EE28A
:101210008A83CE0101960E943B07882309F4B5C159
:1012200065E070E080E090E00E94F30116EF198322
:1012300062E0CE0101960E94A905882309F4A2C1AB
:10124000698170E080E090E00E949E0D20E030E037
:1012500040E853E40E94530E6B017C016A8170E008
:1012600080E090E00E949E0D9B01AC01C701B60199
:101270000E948A0C209156033091570340915803E5
:10128000509159030E94890C2091520330915303CD
:1012900040915403509155030E94530E6B017C0101
:1012A00020915E0330915F03409160035091610390
:1012B0000E948A0C9B01AC0160915A0370915B0300
:1012C00080915C0390915D030E94FB0C9B01AC013B
:1012D000C701B6010E948A0C6B017C0134EF39838F
:1012E0003A83CE0101960E943B07882309F447C147
:1012F0006AE170E080E090E00E94F301198363E00E
:10130000CE0101960E94A905882309F435C120E089
:1013100030E048EC51E4C701B6010E94890C6B0132
:101320007C019B01AC010E94530E2B013C016981A1
:1013300070E080E090E00E949E0D20E030E040E808
:1013400053E40E94530E4B015C016A8170E080E01F
:1013500090E00E949E0D9B01AC01C501B4010E946A
:101360008A0C4B015C016B8170E080E090E00E9490
:101370009E0D20E030E040E85BE30E94530E9B01AD
:10138000AC01C501B4010E948A0C4B015C012091A3
:101390006A0330916B0340916C0350916D03C3015C
:1013A000B2010E94530E6C837D838E839F832091B4
:1013B0006603309167034091680350916903C70148
:1013C000B6010E94530E9B01AC016C817D818E8120
:1013D0009F810E948A0C20916203309163034091A7
:1013E0006403509165030E948A0C9B01AC01C50106
:1013F000B4010E94890C4B015C012091760330916D
:1014000077034091780350917903C301B2010E94A0
:10141000530E2B013C0120917203309173034091D4
:10142000740350917503C701B6010E94530E9B01CE
:10143000AC01C301B2010E948A0C20916E0330916D
:101440006F0340917003509171030E948A0C9B01BD
:10145000AC01C501B4010E94FB0C6B017C019B0136
:10146000AC010E94530E209182033091830340917E
:101470008403509185030E94530E4B015C0120911F
:101480007E0330917F034091800350918103C70117
:10149000B6010E94530E9B01AC01C501B4010E942C
:1014A0008A0C20917A0330917B0340917C03509108
:1014B0007D030E948A0C6B017C019B01AC010E94A0
:1014C000C00E882319F086E291E01AC04601570148
:1014D000E894B7F82FEF3FEF4FE75FE7C501B4019E
:1014E0000E94C00E81110FC02FEF3FEF4FE75FE763
:1014F000C501B4010E94F60C18162CF48AE291E0A2
:101500000E94A10634C02FEF3FEF4FE75FE4C70111
:10151000B6010E944E0E18161CF48EE291E0F0CF38
:101520002FEF3FEF4FE75FECC701B6010E94F60CCB
:1015300087FDF3CF20E030E0A901C701B6010E948A
:10154000F60C87FF07C08DE20E94F406C701B601C2
:10155000905802C0C701B60120E030E040E05FE3F0
:101560000E948A0C0E946D0D4AE00E94B30684E23C
:1015700091E00E94A1060DC082E391E008C089E5D8
:1015800091E005C08EE791E002C088EA91E00E94F8
:101590002D0780E480937C0080917A0080648093A2
:1015A0007A0080917A0086FDFCCF809178002091AE
:1015B000790090E0922BEFEFF3E0E81BF90BCF01FD
:1015C0000E94FF0684E291E00E94A10660E082E0B2
:1015D0000E94A40383E090E00197F1F761E082E0CC
:1015E0000E94A40383E290E00197F1F760E082E0BB
:1015F0000E94A403EDE9F0E06491E9E8F0E0849151
:10160000E82FF0E0EE0FFF1FE458FF4F8591949113
:1016100000E412E42FE030E0462F0E9456076115E7
:1016200071058105910539F0DC01CB010196A11D01
:10163000B11DBF7003C080E090E0DC016AE370E0A0
:101640000E94C50ECB0101960E94FF0680ED91E03D
:101650000E94A10668EC70E080E090E00E94F30137
:101660000E9488016CCD6091400370914103072E68
:10167000000C880B990B0E949E0D20E030E040EAA0
:101680005BE30E94530E2B013C0160914C0370916F
:101690004D0380E090E00E949C0D2FE632E143E094
:1016A00053E30E94530E6B017C01609142037091E1
:1016B0004303072E000C880B990B0E949E0D20E01F
:1016C00030E048EC57E30E94530E4B015C016091FF
:1016D0004E0370914F0380E090E00E949C0D2DEC32
:1016E0003CEC4CE454E30E94530E6093520370931D
:1016F000530380935403909355036091500370916A
:10170000510380E090E00E949C0D6093560370931B
:101710005703809358039093590360914803709145
:101720004903072E000C880B990B0E949E0D2AE09E
:1017300037ED43EA5DE30E94530E60935A037093C2
:101740005B0380935C0390935D0360914A03709107
:101750004B03072E000C880B990B0E949E0D20E076
:1017600030E040E253E40E94FB0C60935E03709310
:101770005F03809360039093610360913C037091D9
:101780003D03072E000C880B990B0E949E0D609361
:101790006203709363038093640390936503609185
:1017A0003E0370913F03072E000C880B990B0E949B
:1017B0009E0D20E030E040EA5CE30E94530E60930F
:1017C0006603709367038093680390936903609145
:1017D000440370914503072E000C880B990B0E945F
:1017E0009E0D20E030E048E45AE30E94530E6093DF
:1017F0006A0370936B0380936C0390936D0320E0F6
:1018000030E040E057E4C701B6010E94530E6093F8
:101810006E0370936F038093700390937103A30121
:101820009201C701B6010E94530E60937203709338
:1018300073038093740390937503A5019401C7010A
:10184000B6010E94530E60937603709377038093E2
:101850007803909379038CEE91E5A7E1B0E480934F
:101860007A0390937B03A0937C03B0937D0380E382
:1018700094E3AEE7BFE380937E0390937F03A0934E
:101880008003B093810380E097E5A4E9B6E38093F9
:10189000820390938303A0938403B093850343CC86
:1018A000E3E9F2E01382128288EE93E0A0E0B0E078
:1018B00084839583A683B78324E031E0318320833A
:1018C00025EC30E03587248724EC30E03787268705
:1018D00020EC30E0318B208B21EC30E0338B228BFD
:1018E00022EC30E0358B248B26EC30E0378B268BD6
:1018F000118E128E138E148EE0E3F3E013821282A7
:1019000084839583A683B78386E191E09183808366
:1019100008955058BB27AA270E94A10C0C94140EBE
:101920000E94060E38F00E940D0E20F039F49F3F01
:1019300019F426F40C94030E0EF4E095E7FB0C94D6
:10194000FD0DE92F0E94250E58F3BA1762077307A1
:101950008407950720F079F4A6F50C94470E0EF451
:10196000E0950B2EBA2FA02D0B01B90190010C01AF
:10197000CA01A0011124FF27591B99F0593F50F4C7
:10198000503E68F11A16F040A22F232F342F44271F
:10199000585FF3CF469537952795A795F040539517
:1019A000C9F77EF41F16BA0B620B730B840BBAF0E7
:1019B0009150A1F0FF0FBB1F661F771F881FC2F752
:1019C0000EC0BA0F621F731F841F48F48795779566
:1019D0006795B795F7959E3F08F0B0CF9395880F20
:1019E00008F09927EE0F9795879508950E94D90DD5
:1019F00008F481E008950E940F0D0C94140E0E94CB
:101A00000D0E58F00E94060E40F029F45F3F29F0B9
:101A10000C94FD0D51110C94480E0C94030E0E9471
:101A2000250E68F39923B1F3552391F3951B550BBC
:101A3000BB27AA2762177307840738F09F5F5F4FA1
:101A4000220F331F441FAA1FA9F335D00E2E3AF0E0
:101A5000E0E832D091505040E695001CCAF72BD0F8
:101A6000FE2F29D0660F771F881FBB1F2617370749
:101A70004807AB07B0E809F0BB0B802DBF01FF277B
:101A800093585F4F3AF09E3F510578F00C94FD0D4E
:101A90000C94480E5F3FE4F3983ED4F38695779517
:101AA0006795B795F7959F5FC9F7880F911D969534
:101AB000879597F90895E1E0660F771F881FBB1F90
:101AC000621773078407BA0720F0621B730B840B3D
:101AD000BA0BEE1F88F7E09508950E942D0E88F04E
:101AE0009F5798F0B92F9927B751B0F0E1F0660FE2
:101AF000771F881F991F1AF0BA95C9F714C0B13023
:101B000091F00E94470EB1E008950C94470E672FA4
:101B1000782F8827B85F39F0B93FCCF38695779551
:101B20006795B395D9F73EF490958095709561953A
:101B30007F4F8F4F9F4F0895E89409C097FB3EF465
:101B400090958095709561957F4F8F4F9F4F99230A
:101B5000A9F0F92F96E9BB279395F6958795779588
:101B60006795B795F111F8CFFAF4BB0F11F460FF48
:101B70001BC06F5F7F4F8F4F9F4F16C0882311F0A0
:101B800096E911C0772321F09EE8872F762F05C0B4
:101B9000662371F096E8862F70E060E02AF09A954F
:101BA000660F771F881FDAF7880F9695879597F944
:101BB0000895990F0008550FAA0BE0E8FEEF1616DE
:101BC0001706E807F907C0F012161306E407F50731
:101BD00098F0621B730B840B950B39F40A2661F0A5
:101BE000232B242B252B21F408950A2609F4A14048
:101BF000A6958FEF811D811D089597F99F6780E855
:101C000070E060E008959FEF80EC089500240A944E
:101C10001616170618060906089500240A941216C7
:101C20001306140605060895092E0394000C11F4FA
:101C3000882352F0BB0F40F4BF2B11F460FF04C0A7
:101C40006F5F7F4F8F4F9F4F089557FD9058440F00
:101C5000551F59F05F3F71F04795880F97FB991F0B
:101C600061F09F3F79F087950895121613061406C8
:101C7000551FF2CF4695F1DF08C016161706180655
:101C8000991FF1CF86957105610508940895E89430
:101C9000BB2766277727CB0197F908950E94D90DB6
:101CA00008F48FEF08950E94660E0C94140E0E94A3
:101CB000060E38F00E940D0E20F0952311F00C94C2
:101CC000FD0D0C94030E11240C94480E0E94250E59
:101CD00070F3959FC1F3950F50E0551F629FF0017F
:101CE000729FBB27F00DB11D639FAA27F00DB11D98
:101CF000AA1F649F6627B00DA11D661F829F222721
:101D0000B00DA11D621F739FB00DA11D621F839FA7
:101D1000A00D611D221F749F3327A00D611D231F7D
:101D2000849F600D211D822F762F6A2F11249F57CB
:101D300050409AF0F1F088234AF0EE0FFF1FBB1FCE
:101D4000661F771F881F91505040A9F79E3F51058D
:101D500080F00C94FD0D0C94480E5F3FE4F3983E28
:101D6000D4F3869577956795B795F795E7959F5F37
:101D7000C1F7FE2B880F911D9695879597F90895C9
:101D80000E94D90D880B990B089597FB072E16F426
:101D9000009407D077FD09D00E94FB0E07FC05D008
:101DA0003EF4909581959F4F0895709561957F4F72
:101DB0000895A1E21A2EAA1BBB1BFD010DC0AA1F8C
:101DC000BB1FEE1FFF1FA217B307E407F50720F0A4
:101DD000A21BB30BE40BF50B661F771F881F991F1F
:101DE0001A9469F760957095809590959B01AC0168
:101DF000BD01CF010895AA1BBB1B51E107C0AA1F5B
:101E0000BB1FA617B70710F0A61BB70B881F991F9B
:101E10005A95A9F780959095BC01CD010895EE0FD4
:101E2000FF1F0590F491E02D099481E090E0F89473
:081E30000C941A0FF894FFCF87
:101E3800000000001F018C00B7006601E800C60022
:101E4800DA0000000000BB028B02EB025F02830293
:101E58006F02600223006E616E00696E66006F7625
:101E680066006572726F7220726574726965766950
:101E78006E67207072657373757265206D65617326
:101E88007572656D656E740A006572726F72207383
:101E980074617274696E67207072657373757265A8
:101EA800206D6561737572656D656E740A00657283
:101EB800726F722072657472696576696E672074D4
:101EC800656D7065726174757265206D6561737595
:101ED80072656D656E740A006572726F7220737434
:101EE800617274696E672074656D7065726174756E
:101EF8007265206D6561737572656D656E740A0033
:061F080025000D0A000097
:00000001FF
