:100000000C9462000C948A000C948A000C944C05A9
:100010000C944C050C944C050C948A000C948A00AA
:100020000C948A000C948A000C948A000C948A0028
:100030000C948A000C948A000C948A000C948A0018
:100040000C94D4030C948A000C9449030C9423035D
:100050000C948A000C948A000C948A000C948A00F8
:100060000C941E040C948A00000000002400270059
:100070002A0000000000250028002B0000000000DE
:1000800023002600290004040404040404040202DA
:100090000202020203030303030301020408102007
:1000A0004080010204081020010204081020000012
:1000B0000008000201000003040700000000000027
:1000C0000000490C11241FBECFEFD8E0DEBFCDBF2A
:1000D00011E0A0E0B1E0EAE2FEE102C005900D927D
:1000E000A63DB107D9F723E0A6EDB1E001C01D920E
:1000F000A938B207E1F710E0C2E6D0E004C02197CA
:10010000FE010E94080FC136D107C9F70E94A5075A
:100110000C94130F0C940000CF92DF92EF92FF9299
:100120000F931F93CF93DF936C017A018B01C0E093
:10013000D0E0CE15DF0589F0D8016D918D01D60193
:10014000ED91FC910190F081E02DC6010995892B7C
:1001500011F47E0102C02196ECCFC701DF91CF914F
:100160001F910F91FF90EF90DF90CF900895FC01C9
:10017000538D448D252F30E0842F90E0821B930B0C
:10018000541710F0CF96089501970895FC01918DB2
:10019000828D981761F0828DDF01A80FB11D5D96E9
:1001A0008C91928D9F5F9F73928F90E008958FEF57
:1001B0009FEF0895FC01918D828D981731F0828D0B
:1001C000E80FF11D858D90E008958FEF9FEF089562
:1001D000FC01918D228D892F90E0805C9F4F821BC6
:1001E00091098F739927089584E992E00E94E800AD
:1001F00021E0892B09F420E0822F0895FC01848DF1
:10020000DF01A80FB11DA35ABF4F2C91848D90E040
:1002100001968F739927848FA689B7892C93A0891B
:10022000B1898C9180648C93938D848D981306C0D2
:100230000288F389E02D80818F7D80830895EF927D
:10024000FF920F931F93CF93DF93EC0181E0888F90
:100250009B8D8C8D981305C0E889F989808185FD77
:1002600024C0F62E0B8D10E00F5F1F4F0F73112768
:10027000E02E8C8DE8120CC00FB607FCFACFE8898F
:10028000F989808185FFF5CFCE010E94FE00F1CF74
:100290008B8DFE01E80FF11DE35AFF4FF0820B8FAB
:1002A000EA89FB898081806207C0EE89FF896083CB
:1002B000E889F98980818064808381E090E0DF9122
:1002C000CF911F910F91FF90EF900895CF93DF93FF
:1002D000EC01888D8823C9F0EA89FB89808185FD3E
:1002E00005C0A889B9898C9186FD0FC00FB607FC9F
:1002F000F5CF808185FFF2CFA889B9898C9185FFE0
:10030000EDCFCE010E94FE00E7CFDF91CF9108959F
:1003100080E090E0892B29F00E94F40081110C9478
:1003200000000895CF93DF9390E0FC01E656FF4F65
:100330002491FC01EA57FF4F8491882361F190E0FA
:10034000880F991FFC01E859FF4FC591D491FC011A
:10035000EE58FF4FA591B491611109C09FB7F89471
:100360008881209582238883EC912E230BC06230F4
:1003700061F49FB7F8943881822F80958323888316
:10038000EC912E2B2C939FBF06C08FB7F894E88179
:100390002E2B28838FBFDF91CF9108953FB7F8941C
:1003A0008091240290912502A0912602B09127020B
:1003B00026B5A89B05C02F3F19F00196A11DB11DC0
:1003C0003FBFBA2FA92F982F8827820F911DA11DFB
:1003D000B11DBC01CD0142E0660F771F881F991F38
:1003E0004A95D1F708958F929F92AF92BF92CF9284
:1003F000DF92EF92FF926B017C010E94CE014B01D4
:100400005C01C114D104E104F104F1F00E94CE01B9
:10041000DC01CB0188199909AA09BB09883E9340E0
:10042000A105B10570F321E0C21AD108E108F10875
:1004300088EE880E83E0981EA11CB11CC114D10463
:10044000E104F10419F7DDCFFF90EF90DF90CF903A
:10045000BF90AF909F908F90089585ED8093BC00E2
:100460008091BC0084FDFCCF1092700208954091F1
:10047000FA01262F30E0240F311D21323105DCF442
:10048000209170022430C9F4FC0180E090E08617CE
:1004900058F43091FA012191DC01A852BE4FA30F0C
:1004A000B11D2C930196F3CF8091FA01680F6093F0
:1004B000FA0180E0089581E0089582E008950895AA
:1004C000E091290280912802E81730F4F0E0E65D1F
:1004D000FD4F808190E008958FEF9FEF08959091F8
:1004E000290280912802981750F4E92FF0E0E65D88
:1004F000FD4F208130E09F5F9093290202C02FEFD3
:100500003FEFC90108958091280290E020912902CF
:10051000821B91090895CF92DF92EF92FF920F9381
:100520001F93CF93DF937C01262F972F8A01809111
:100530007102882391F0C62FD72F6E01C40ED51EED
:10054000CC15DD0571F06991D701ED91FC91019019
:10055000F081E02DC7010995F3CF642F822F0E940F
:100560003702C801DF91CF911F910F91FF90EF905B
:10057000DF90CF900895CF93DF931F92CDB7DEB772
:100580006983209171022223D1F0209193022032BD
:1005900040F021E030E0FC013383228380E090E0F2
:1005A00015C080917202E82FF0E0ED58FD4F99815F
:1005B00090838F5F809372028093930205C061E005
:1005C000CE0101960E94370281E090E00F90DF910A
:1005D000CF910895089580E090E00895EF92FF9202
:1005E0001F93CF93DF9362E08DE00E94920183E03E
:1005F00090E00197F1F7C7E0D0E010E083ECE82E3F
:10060000F12C0E948706892BE1F3C7010197F1F7CE
:100610000E9487068130910539F49C010C2E01C09F
:10062000220F0A94EAF7122B0E9487060197E1F342
:10063000219738F7812FDF91CF911F91FF90EF9095
:1006400008950E940E0F1F920F920FB60F92112461
:100650002F933F934F935F936F937F938F939F93CA
:10066000AF93BF93EF93FF9384E992E00E94FE0063
:10067000FF91EF91BF91AF919F918F917F916F917A
:100680005F914F913F912F910F900FBE0F901F9050
:1006900018951F920F920FB60F9211242F938F93DC
:1006A0009F93EF93FF93E091A402F091A5028081C4
:1006B000E091AA02F091AB0282FD12C0908180917C
:1006C000AD028F5F8F732091AE02821751F0E091DF
:1006D000AD02F0E0EC56FD4F958F8093AD0201C066
:1006E0008081FF91EF919F918F912F910F900FBE7D
:1006F0000F901F901895833081F028F4813099F085
:100700008230A1F008958730A9F08830B9F08430A4
:10071000D1F4809180008F7D03C0809180008F771D
:1007200080938000089584B58F7702C084B58F7D53
:1007300084BD08958091B0008F7703C08091B00090
:100740008F7D8093B00008951F93CF93DF93282F60
:1007500030E0F901E255FF4F8491F901E656FF4F71
:10076000D491F901EA57FF4FC491CC23C9F0162F59
:1007700081110E947B03EC2FF0E0EE0FFF1FEE587B
:10078000FF4FA591B4918FB7F894111105C09C91BA
:10079000ED2FE095E92302C0EC91ED2BEC938FBF98
:1007A000DF91CF911F9108951F920F920FB60F9274
:1007B00011242F933F938F939F93AF93BF93809177
:1007C000200290912102A0912202B0912302309147
:1007D0001F0223E0230F2D3720F40196A11DB11D28
:1007E00005C026E8230F0296A11DB11D20931F020C
:1007F0008093200290932102A0932202B0932302BF
:100800008091240290912502A0912602B0912702A6
:100810000196A11DB11D8093240290932502A093FF
:100820002602B0932702BF91AF919F918F913F9184
:100830002F910F900FBE0F901F9018951F920F923F
:100840000FB60F9211242F933F934F935F936F93A3
:100850007F938F939F93AF93BF93EF93FF93809179
:10086000B900887F803609F49CC068F5883209F4A5
:100870005BC090F4803109F454C038F4882309F443
:10088000F6C0883009F44DC0F6C0883109F44CC078
:10089000803209F45DC0EFC0803409F468C048F4C8
:1008A000803309F455C0883309F0E5C080936E02A7
:1008B000D8C0803509F44FC0883509F45DC088344C
:1008C00009F0D9C0D6C0883909F4C7C0A8F4883760
:1008D00009F467C038F4883609F463C0803709F436
:1008E00060C0C9C0883809F4B8C0803909F45FC055
:1008F000803809F0C0C05BC0803B09F486C038F482
:10090000803A09F466C0883A09F47FC0B4C0803CDC
:1009100009F4A7C0883C09F4A4C0883B09F48AC044
:10092000AAC080914B0210C090916D0280916C0220
:10093000981770F5E0916D0281E08E0F80936D0243
:10094000F0E0E45BFD4F80818093BB0085EC86C0C6
:1009500080936E028EC0E0916D0281E08E0F8093D5
:100960006D028091BB00F0E0E45BFD4F80839091CD
:100970006D0280916C026EC0E0916D0281E08E0F7D
:1009800080936D028091BB00F0E0E45BFD4F8083BB
:1009900080916F0281116DC081E080934A0284EAE8
:1009A00061C083E08093700210921E02CFCF8091CD
:1009B0001E02803208F051C0E0911E0281E08E0FCD
:1009C00080931E028091BB00F0E0E250FE4F8083D6
:1009D000BDCF85EC8093BC001092700280911E0206
:1009E000803230F4E0911E02F0E0E250FE4F1082BF
:1009F00060911E0270E0E091FC01F091FD018EEF2C
:100A000091E0099510921E0236C084E08093700236
:100A10001092FB011092FA01E091F801F091F901B6
:100A200009958091FA01811105C081E08093FA0156
:100A30001092D801E091FB0181E08E0F8093FB01C1
:100A4000F0E0E852FE4F80818093BB009091FB0163
:100A50008091FA01981708F479CF85E88093BC005B
:100A60000AC085EC8093BC001092700204C0109202
:100A70006E020E942D02FF91EF91BF91AF919F9165
:100A80008F917F916F915F914F913F912F910F9037
:100A90000FBE0F901F9018951F920F920FB60F92D6
:100AA00011240F900FBE0F901F901895382F209192
:100AB000930290918803213208F049C0809170021E
:100AC0008111FCCF42E04093700230936F023FEF00
:100AD00030936E0210926D0220936C02A3E7B2E095
:100AE0004CE452E0FA013E2F341B321718F43D91CA
:100AF0003193F9CF10924B0220914B02990F922B18
:100B000090934B0290914A02913061F410924A0204
:100B100090914B029093BB009091BC0093FDF8CF55
:100B200095EC01C095EE9093BC00909170029230CC
:100B3000E1F390916E029F3F79F080916E028032D6
:100B400041F080916E02803331F084E005C081E095
:100B500003C082E001C083E01092720210929302FF
:100B6000109271020895EF92FF920F931F93CF930B
:100B7000DF938C01C62F81E08093710287E7809319
:100B800088031092720210929302F801608181E34F
:100B900093E00E94BB0281E00E9456058093870388
:100BA000811163C04C2F0C2E000C550B80917002EC
:100BB0008111FCCF2C2FC13208F020E281E080931C
:100BC000700280936F029FEF90936E0210926D02FD
:100BD000920F90936C0280934B0290914B029E6E09
:100BE00090934B0280914A02813061F410924A0244
:100BF00080914B028093BB008091BC0083FDF8CFB5
:100C000085EC01C085EE8093BC008091700281303C
:100C1000E1F380916D02821710F420916D02ACE433
:100C2000B2E06AE272E0FB018E2F861B821718F495
:100C30008D918193F9CF109229022093280230E000
:100C400024173507E9F7D0E0DC176CF47801ED0ED6
:100C5000F11CD7FDFA9481E393E00E946F02F70143
:100C60008083DF5FF1CF81E001C080E0DF91CF9131
:100C70001F910F91FF90EF9008950F931F93CF93C3
:100C8000DF9300D0CDB7DEB78B01898362E0CE0160
:100C900001960E94B305882359F0898190E0982F2E
:100CA00088272A81822BF8019183808381E003C009
:100CB000F801118210820F900F90DF91CF911F9158
:100CC0000F9108950F931F93CF93DF9300D0CDB76B
:100CD000DEB78B01898362E0CE0101960E94B305E5
:100CE000882359F0898190E0982F88272A81822BC8
:100CF000F8019183808381E003C0F80111821082A2
:100D00000F900F90DF91CF911F910F910895CF9386
:100D1000DF93EBEBF0E08491E7EAF0E0D491E3E9D4
:100D2000F0E0C491CC2391F081110E947B03EC2F61
:100D3000F0E0EE0FFF1FE458FF4FA591B491EC9146
:100D4000ED2381E090E021F480E002C080E090E0BB
:100D5000DF91CF910895009769F0FC010190002088
:100D6000E9F73197AF01481B590BBC0184E992E0C8
:100D70000C948C0080E090E008958F929F92AF9247
:100D8000BF920F931F93CF93DF93CDB7DEB7A19799
:100D90000FB6F894DEBF0FBECDBF19A2423008F4E3
:100DA0004AE08E010F5D1F4F842E912CA12CB12C97
:100DB000A50194010E94D20EE62FB901CA0101508B
:100DC0001109EA3014F4E05D01C0E95CD801EC934C
:100DD000232B242B252B61F7C8010E94AB06A1967B
:100DE0000FB6F894DEBF0FBECDBFDF91CF911F913C
:100DF0000F91BF90AF909F908F900895E0919402D3
:100E0000F09195020190F081E02D682F84E992E045
:100E10000994CF92DF92EF92FF92CF93DF936C0110
:100E2000990FEE08FF08F7FE17C08DE20E94FE063C
:100E3000EC0166277727CB016C197D098E099F0984
:100E40004AE00E94BD068C0F9D1FDF91CF91FF905D
:100E5000EF90DF90CF9008954AE0C701B601DF918F
:100E6000CF91FF90EF90DF90CF900C94BD06CF9381
:100E7000DF930E94AB06EC0182ED91E00E94AB068D
:100E80008C0F9D1FDF91CF91089521E02093710277
:100E900027E720938803109272021092930242E097
:100EA00050E0BC0181E393E00E948B0281E00E944C
:100EB0005605982F8093870381E0911180E0089573
:100EC000CF92DF92EF92FF920F931F93E82FF92FAB
:100ED00005C0015011092109310961F19081962362
:100EE0009417B9F305C0015011092109310911F115
:100EF000908196239413F7CFC12CD12CE12CF12CA7
:100F00000AC08FEFC81AD80AE80AF80A0C151D059E
:100F10002E053F0579F080818623841791F36C2D8F
:100F20007D2D8E2D9F2D1F910F91FF90EF90DF90C3
:100F3000CF90089560E070E080E090E01F910F9105
:100F4000FF90EF90DF90CF900895CF93DF93CDB7D0
:100F5000DEB727970FB6F894DEBF0FBECDBF7894EB
:100F600084B5826084BD84B5816084BD85B58260AE
:100F700085BD85B5816085BD80916E00816080935F
:100F80006E001092810080918100826080938100C8
:100F900080918100816080938100809180008160D8
:100FA000809380008091B10084608093B100809133
:100FB000B00081608093B00080917A00846080935B
:100FC0007A0080917A00826080937A0080917A0022
:100FD000816080937A0080917A00806880937A00A3
:100FE0001092C100E091A402F091A50282E08083FA
:100FF000E091A002F091A1021082E091A202F09192
:10100000A3028FEC80831092AC02E091A802F091D1
:10101000A90286E08083E091A602F091A702808178
:1010200080618083E091A602F091A70280818860B0
:101030008083E091A602F091A7028081806880837E
:10104000E091A602F091A70280818F7D80831092AB
:1010500029021092280210927202109293021092AA
:10106000700281E080936F0210924A0261E082E197
:101070000E94A40361E083E10E94A4038091B9006F
:101080008E7F8093B9008091B9008D7F8093B900E5
:1010900088E48093B80085E48093BC006DE373E03E
:1010A0008AEA0E943D06882309F447C06FE373E093
:1010B0008CEA0E943D06882309F43FC061E473E096
:1010C0008EEA0E943D068823C1F16DE473E080EB57
:1010D0000E946206882389F16FE473E082EB0E942C
:1010E0006206882351F161E573E084EB0E94620699
:1010F000882319F163E473E086EB0E943D068823A0
:10110000E1F065E473E088EB0E943D068823A9F0D6
:1011100067E473E08AEB0E943D06882371F069E47E
:1011200073E08CEB0E943D06882339F06BE473E09A
:101130008EEB0E943D0681118FC260E083E00E9429
:10114000920161E082E00E9492014BE3242E33245D
:10115000339461E08DE00E94920160E08DE00E9496
:10116000A4036EE170E080E090E00E94F30161E092
:101170008DE00E94A4038BE990E00197F1F762E013
:101180008DE00E9492010E948706019721F4C1011F
:101190000197F1F7F8CF0E948706892B19F4C10156
:1011A0000197F1F70E94EE02F82E0E94EE020E94D3
:1011B000EE02182F0E94EE020E94EE0283EC90E0F5
:1011C0000197F1F761E08DE00E94920161E08DE00E
:1011D0000E94A4038F2D90E0880F991F0E94090799
:1011E00084E291E00E94AB06812F90E0880F991F66
:1011F0000E94090784E291E00E94AB0624EF298354
:101200008EE28A83CE0101960E944507882309F465
:10121000B5C165E070E080E090E00E94F30116EF58
:10122000198362E0CE0101960E94B305882309F478
:10123000A2C1698170E080E090E00E94970D20E0FB
:1012400030E040E853E40E944C0E6B017C016A815F
:1012500070E080E090E00E94970D9B01AC01C70117
:10126000B6010E94830C209157033091580340919E
:10127000590350915A030E94820C209153033091DC
:10128000540340915503509156030E944C0E6B013C
:101290007C0120915F033091600340916103509184
:1012A00062030E94830C9B01AC0160915B0370910F
:1012B0005C0380915D0390915E030E94F40C9B019E
:1012C000AC01C701B6010E94830C6B017C0134EFB5
:1012D00039833A83CE0101960E944507882309F499
:1012E00047C16AE170E080E090E00E94F301198359
:1012F00063E0CE0101960E94B305882309F435C14D
:1013000020E030E048EC51E4C701B6010E94820CB5
:101310006B017C019B01AC010E944C0E2B013C0136
:10132000698170E080E090E00E94970D20E030E05D
:1013300040E853E40E944C0E4B015C016A8170E06E
:1013400080E090E00E94970D9B01AC01C501B401C3
:101350000E94830C4B015C016B8170E080E090E0A7
:101360000E94970D20E030E040E85BE30E944C0EC5
:101370009B01AC01C501B4010E94830C4B015C01CF
:1013800020916B0330916C0340916D0350916E037B
:10139000C301B2010E944C0E6C837D838E839F83B8
:1013A00020916703309168034091690350916A036B
:1013B000C701B6010E944C0E9B01AC016C817D817E
:1013C0008E819F810E94830C20916303309164037E
:1013D00040916503509166030E94830C9B01AC0110
:1013E000C501B4010E94820C4B015C01209177037E
:1013F000309178034091790350917A03C301B2018F
:101400000E944C0E2B013C01209173033091740318
:101410004091750350917603C701B6010E944C0EAE
:101420009B01AC01C301B2010E94830C20916F03A8
:101430003091700340917103509172030E94830CAC
:101440009B01AC01C501B4010E94F40C6B017C014D
:101450009B01AC010E944C0E2091830330918403C8
:1014600040918503509186030E944C0E4B015C0114
:1014700020917F033091800340918103509182033A
:10148000C701B6010E944C0E9B01AC01C501B4011D
:101490000E94830C20917B0330917C0340917D035B
:1014A00050917E030E94830C6B017C019B01AC0177
:1014B0000E94B90E882319F086E291E01AC0460115
:1014C0005701E894B7F82FEF3FEF4FE75FE7C5010B
:1014D000B4010E94B90E81110FC02FEF3FEF4FE70B
:1014E0005FE7C501B4010E94EF0C18162CF48AE2E4
:1014F00091E00E94AB0634C02FEF3FEF4FE75FE46F
:10150000C701B6010E94470E18161CF48EE291E046
:10151000F0CF2FEF3FEF4FE75FECC701B6010E941E
:10152000EF0C87FDF3CF20E030E0A901C701B60141
:101530000E94EF0C87FF07C08DE20E94FE06C701E4
:10154000B601905802C0C701B60120E030E040E08B
:101550005FE30E94830C0E94660D4AE00E94BD0674
:1015600084E291E00E94AB060DC082E391E008C0E6
:1015700089E591E005C08EE791E002C088EA91E03C
:101580000E94370780E480937C0080917A00806419
:1015900080937A0080917A0086FDFCCF809178005C
:1015A0002091790090E0922BEFEFF3E0E81BF90B2C
:1015B000CF010E94090784E291E00E94AB0660E03F
:1015C00082E00E94A40383E090E00197F1F761E0DC
:1015D00082E00E94A40383E290E00197F1F760E0CB
:1015E00082E00E94A403EDE9F0E06491E9E8F0E014
:1015F0008491E82FF0E0EE0FFF1FE458FF4F859134
:10160000949100E412E42FE030E0462F0E9460073E
:10161000611571058105910539F0DC01CB01019659
:10162000A11DB11DBF7003C080E090E0DC016AE342
:1016300070E00E94BE0ECB0101960E94090780ED6A
:1016400091E00E94AB0668E873E180E090E00E94C0
:10165000F3010E9488017DCD6091410370914203A6
:10166000072E000C880B990B0E94970D20E030E0AC
:1016700040EA5BE30E944C0E2B013C0160914D035C
:1016800070914E0380E090E00E94950D2FE632E1CC
:1016900043E053E30E944C0E6B017C0160914303D5
:1016A00070914403072E000C880B990B0E94970D34
:1016B00020E030E048EC57E30E944C0E4B015C0107
:1016C00060914F037091500380E090E00E94950D6F
:1016D0002DEC3CEC4CE454E30E944C0E609353031D
:1016E0007093540380935503909356036091510374
:1016F0007091520380E090E00E94950D6093570333
:10170000709358038093590390935A03609149034F
:1017100070914A03072E000C880B990B0E94970DBD
:101720002AE037ED43EA5DE30E944C0E60935B03D1
:1017300070935C0380935D0390935E0360914B0311
:1017400070914C03072E000C880B990B0E94970D8B
:1017500020E030E040E253E40E94F40C60935F0329
:1017600070936003809361039093620360913D03E3
:1017700070913E03072E000C880B990B0E94970D69
:10178000609363037093640380936503909366038F
:1017900060913F0370914003072E000C880B990B5A
:1017A0000E94970D20E030E040EA5CE30E944C0E7E
:1017B00060936703709368038093690390936A034F
:1017C0006091450370914603072E000C880B990B1E
:1017D0000E94970D20E030E048E45AE30E944C0E4E
:1017E00060936B0370936C0380936D0390936E030F
:1017F00020E030E040E057E4C701B6010E944C0E03
:1018000060936F03709370038093710390937203DE
:10181000A3019201C701B6010E944C0E60937303AD
:10182000709374038093750390937603A5019401DC
:10183000C701B6010E944C0E609377037093780342
:101840008093790390937A038CEE91E5A7E1B0E45D
:1018500080937B0390937C03A0937D03B0937E03DE
:1018600080E394E3AEE7BFE380937F03909380032C
:10187000A0938103B093820380E097E5A4E9B6E3E7
:101880008093830390938403A0938503B09386038E
:1018900054CCE4E9F2E01382128288EE93E0A0E0F7
:1018A000B0E084839583A683B78324E031E031835D
:1018B000208325EC30E03587248724EC30E037871F
:1018C000268720EC30E0318B208B21EC30E0338B0D
:1018D000228B22EC30E0358B248B26EC30E0378BEA
:1018E000268B118E128E138E148EE1E3F3E0138299
:1018F000128284839583A683B78386E191E09183E6
:10190000808308955058BB27AA270E949A0C0C94F4
:101910000D0E0E94FF0D38F00E94060E20F039F4E3
:101920009F3F19F426F40C94FC0D0EF4E095E7FBB0
:101930000C94F60DE92F0E941E0E58F3BA17620799
:1019400073078407950720F079F4A6F50C94400EF0
:101950000EF4E0950B2EBA2FA02D0B01B9019001CA
:101960000C01CA01A0011124FF27591B99F0593F0E
:1019700050F4503E68F11A16F040A22F232F342F56
:101980004427585FF3CF469537952795A795F040A4
:101990005395C9F77EF41F16BA0B620B730B840BB9
:1019A000BAF09150A1F0FF0FBB1F661F771F881F71
:1019B000C2F70EC0BA0F621F731F841F48F48795C9
:1019C00077956795B795F7959E3F08F0B0CF9395BB
:1019D000880F08F09927EE0F9795879508950E9434
:1019E000D20D08F481E008950E94080D0C940D0EAC
:1019F0000E94060E58F00E94FF0D40F029F45F3F50
:101A000029F00C94F60D51110C94410E0C94FC0D20
:101A10000E941E0E68F39923B1F3552391F3951B91
:101A2000550BBB27AA2762177307840738F09F5FFF
:101A30005F4F220F331F441FAA1FA9F335D00E2E6C
:101A40003AF0E0E832D091505040E695001CCAF7D9
:101A50002BD0FE2F29D0660F771F881FBB1F26179C
:101A600037074807AB07B0E809F0BB0B802DBF0173
:101A7000FF2793585F4F3AF09E3F510578F00C9442
:101A8000F60D0C94410E5F3FE4F3983ED4F3869537
:101A900077956795B795F7959F5FC9F7880F911D63
:101AA0009695879597F90895E1E0660F771F881F4F
:101AB000BB1F621773078407BA0720F0621B730B02
:101AC000840BBA0BEE1F88F7E09508950E94260E4E
:101AD00088F09F5798F0B92F9927B751B0F0E1F0EF
:101AE000660F771F881F991F1AF0BA95C9F714C09F
:101AF000B13091F00E94400EB1E008950C94400E78
:101B0000672F782F8827B85F39F0B93FCCF38695D7
:101B100077956795B395D9F73EF490958095709534
:101B200061957F4F8F4F9F4F0895E89409C097FBB1
:101B30003EF490958095709561957F4F8F4F9F4FA4
:101B40009923A9F0F92F96E9BB279395F6958795E8
:101B500077956795B795F111F8CFFAF4BB0F11F4AB
:101B600060FF1BC06F5F7F4F8F4F9F4F16C0882352
:101B700011F096E911C0772321F09EE8872F762F88
:101B800005C0662371F096E8862F70E060E02AF0C9
:101B90009A95660F771F881FDAF7880F96958795B5
:101BA00097F90895990F0008550FAA0BE0E8FEEF8A
:101BB00016161706E807F907C0F012161306E40711
:101BC000F50798F0621B730B840B950B39F40A260A
:101BD00061F0232B242B252B21F408950A2609F4E8
:101BE000A140A6958FEF811D811D089597F99F67EC
:101BF00080E870E060E008959FEF80EC0895002495
:101C00000A941616170618060906089500240A9461
:101C100012161306140605060895092E0394000CE7
:101C200011F4882352F0BB0F40F4BF2B11F460FF76
:101C300004C06F5F7F4F8F4F9F4F089557FD90589F
:101C4000440F551F59F05F3F71F04795880F97FB80
:101C5000991F61F09F3F79F087950895121613063A
:101C60001406551FF2CF4695F1DF08C01616170669
:101C70001806991FF1CF869571056105089408959E
:101C8000E894BB2766277727CB0197F908950E9430
:101C9000D20D08F48FEF08950E945F0E0C940D0E84
:101CA0000E94FF0D38F00E94060E20F0952311F0DF
:101CB0000C94F60D0C94FC0D11240C94410E0E9412
:101CC0001E0E70F3959FC1F3950F50E0551F629F54
:101CD000F001729FBB27F00DB11D639FAA27F00D85
:101CE000B11DAA1F649F6627B00DA11D661F829FAC
:101CF0002227B00DA11D621F739FB00DA11D621F91
:101D0000839FA00D611D221F749F3327A00D611DAD
:101D1000231F849F600D211D822F762F6A2F11248F
:101D20009F5750409AF0F1F088234AF0EE0FFF1FC2
:101D3000BB1F661F771F881F91505040A9F79E3F19
:101D4000510580F00C94F60D0C94410E5F3FE4F3C6
:101D5000983ED4F3869577956795B795F795E7956F
:101D60009F5FC1F7FE2B880F911D9695879597F978
:101D700008950E94D20D880B990B089597FB072EAA
:101D800016F4009407D077FD09D00E94F40E07FCEA
:101D900005D03EF4909581959F4F0895709561957B
:101DA0007F4F0895A1E21A2EAA1BBB1BFD010DC097
:101DB000AA1FBB1FEE1FFF1FA217B307E407F507FB
:101DC00020F0A21BB30BE40BF50B661F771F881FD7
:101DD000991F1A9469F760957095809590959B016D
:101DE000AC01BD01CF010895AA1BBB1B51E107C087
:101DF000AA1FBB1FA617B70710F0A61BB70B881F9B
:101E0000991F5A95A9F780959095BC01CD01089529
:101E1000EE0FFF1F0590F491E02D099481E090E012
:0A1E2000F8940C94130FF894FFCF10
:101E2A00000000001F018C00B7006601E800C60030
:101E3A00DA0000000000BB028B02EB025F028302A1
:101E4A006F02600223006E616E00696E66006F7633
:101E5A0066006572726F722072657472696576695E
:101E6A006E67207072657373757265206D65617334
:101E7A007572656D656E740A006572726F72207391
:101E8A0074617274696E67207072657373757265B6
:101E9A00206D6561737572656D656E740A00657291
:101EAA00726F722072657472696576696E672074E2
:101EBA00656D7065726174757265206D65617375A3
:101ECA0072656D656E740A006572726F7220737442
:101EDA00617274696E672074656D7065726174757C
:101EEA007265206D6561737572656D656E740A0041
:061EFA0025000D0A0000A6
:00000001FF
